:100000000C94D3090C94FE090C94FE090C94FE097F
:100010000C94FE090C94FE090C94FE090C94FE0944
:100020000C94FE090C94FE090C949A5D0C94145CDB
:100030000C94FE090C94FE090C94FE090C94FE0924
:100040000C94FE090C945B470C94FE090C94FE0979
:100050000C94FE090C94FE090C94E14F0C94DD5AAB
:100060000C94FE090C94FE090C94FE090C94FE09F4
:100070000C94FE090C94FE090C94FE090C94FE09E4
:100080000C94FE090C94FE090C94FE090C94FE09D4
:100090000C94FE090C94FE09084AD73B3BCE016E36
:1000A00084BCBFFDC12F3D6C74319ABD56833DDACF
:1000B0003D00C77F11BED9E4BB4C3E916BAAAABEDE
:1000C000000000803F05A84CCDB2D44EB93836A907
:1000D000020C50B9918688083CA6AAAA2ABE000044
:1000E00000803F6563686F3A0053746F72656420E7
:1000F00073657474696E677320726574726569766E
:1001000065643A002044002049002020204D33300F
:10011000312050005049442073657474696E6773D0
:100120003A00205A0020590020204D323036205805
:1001300000486F6D65206F666673657420286D6D6D
:10014000293A00204500205A002058002042002073
:10015000540020204D323035205300416476616ECA
:10016000636564207661726961626C65733A2053DD
:100170003D4D696E20666565647261746520286D09
:100180006D2F73292C20543D4D696E207472617659
:10019000656C20666565647261746520286D6D2FDD
:1001A00073292C20423D6D696E696D756D207365F4
:1001B000676D656E742074696D6520286D73292CD8
:1001C00020583D6D6178696D756D207859206A659C
:1001D000726B20286D6D2F73292C20205A3D6D6184
:1001E00078696D756D205A206A65726B20286D6D77
:1001F0002F73290020540020204D3230342053002A
:10020000416363656C65726174696F6E3A20533D3A
:10021000616363656C65726174696F6E2C20543D17
:100220007265747261637420616363656C65726189
:1002300074696F6E00204500205A0020590020206C
:100240004D3230312058004D6178696D756D204117
:100250006363656C65726174696F6E20286D6D2FC4
:100260007332293A00204500205A002059002020EE
:100270004D3230332058004D6178696D756D2066C0
:10028000656564726174657320286D6D2F73293AFA
:1002900000204500205A0020590020204D393220EE
:1002A000580053746570732070657220756E6974A0
:1002B0003A0053657474696E67732053746F726586
:1002C00064006563686F3A004572726F723A00505D
:1002D00072696E7465722073746F707065642064E7
:1002E000756520746F206572726F72732E20466977
:1002F0007820746865206572726F7220616E642068
:10030000757365204D39393920746F2072657374A7
:100310006172742E202854656D70657261747572F7
:10032000652069732072657365742E20536574208F
:100330006974206166746572207265737461727489
:10034000696E6729005072696E7465722068616C0D
:100350007465642E206B696C6C28292063616C6C59
:10036000656421006F6B00526573656E643A20000E
:100370002200556E6B6E6F776E20636F6D6D616ED0
:10038000643A2022007A5F6D696E3A2000795F6DD1
:1003900061783A2000785F6D61783A20005A3A001F
:1003A000593A0020436F756E7420583A2000453A40
:1003B000005A3A00593A00583A004649524D5741BE
:1003C00052455F4E414D453A4D61726C696E205603
:1003D000313B20537072696E7465722F6772626C64
:1003E000206D617368757020666F72205072696E3F
:1003F0007472626F617264204649524D5741524592
:100400005F55524C3A687474703A2F2F7777772E75
:10041000736F6C69646F6F646C652E636F6D2F68AA
:100420006F772D746F2D322F686F772D746F2D7548
:1004300070646174652D6669726D776172652F20D5
:1004400050524F544F434F4C5F56455253494F4EB5
:100450003A312E30204D414348494E455F54595062
:10046000453A536F6C69646F6F646C655F32204509
:10047000585452554445525F434F554E543A310AF1
:100480000020423A0020453A00543A0020573A00F2
:1004900020453A00543A002042403A0020403A00B9
:1004A000202F0020423A00202F006F6B20543A008A
:1004B0002569206D696E2C20256920736563000015
:1004C000001F430000164300000000000000000071
:1004D0000000000000000000001F43000016430061
:1004E00000164300001F430000164300001643009F
:1004F00000A0400000A0400000A0400101FF507299
:10050000696E7465722073746F70706564206475B1
:100510006520746F206572726F72732E2046697841
:1005200020746865206572726F7220616E64207538
:100530007365204D39393920746F20726573746189
:1005400072742E202854656D7065726174757265C1
:100550002069732072657365742E20536574206959
:100560007420616674657220726573746172746957
:100570006E6729006F6B004E6F204C696E65204ED0
:10058000756D626572207769746820636865636B56
:1005900073756D2C204C617374204C696E653A2024
:1005A000004E6F20436865636B73756D20776974C7
:1005B00068206C696E65206E756D6265722C204CCA
:1005C000617374204C696E653A2000636865636BE3
:1005D00073756D206D69736D617463682C204C6157
:1005E0007374204C696E653A20004C696E65204E2C
:1005F000756D626572206973206E6F74204C617333
:1006000074204C696E65204E756D6265722B312CBD
:10061000204C617374204C696E653A20004D313175
:1006200030002020506C616E6E65724275666665A2
:100630007242797465733A20002046726565204DD8
:10064000656D6F72793A2000417567202034203241
:1006500030313400436F6D70696C65643A2000542A
:100660004A5300207C20417574686F723A20004123
:1006700075672020342032303134322F32362F3219
:1006800030313331303A30353A313600204C6173F5
:100690007420557064617465643A2000312E302EE8
:1006A00030004D61726C696E200020536F66747764
:1006B00061726520526573657400205761746368C8
:1006C000646F67205265736574002042726F776EA5
:1006D000206F7574205265736574002045787465C9
:1006E000726E616C20526573657400506F7765722D
:1006F0005570007374617274002200656E717565C7
:10070000696E672022002200656E717565696E67EB
:100710002022006563686F3A0020746F6F206C6F51
:100720006E6720657874727573696F6E207072657C
:1007300076656E7465640020636F6C642065787400
:10074000727573696F6E2070726576656E7465641C
:100750000045313A200045303A20005A3A200059ED
:100760003A2000583A20004D53312C4D533220503E
:10077000696E730A0024F404D9201BC40C5C0E9823
:1007800004C4095F0265077101F405F900FB04B3B5
:100790000048048700C1036900580355000303455E
:1007A00000BE023A008402310053022A00290225C9
:1007B0000004022000E4011C00C8011900AF011769
:1007C00000980114008401130071011000610110F0
:1007D0000051010E0043010D0036010B002B010BEF
:1007E0000020010B00150109000C0109000301089C
:1007F00000FB000800F3000800EB000700E400061F
:1008000000DE000600D8000600D2000600CC00057D
:1008100000C7000500C2000500BD000400B90004C7
:1008200000B5000400B1000400AD000400A90004FC
:1008300000A5000300A20003009F0004009B00032A
:10084000009800030095000200930003009000034D
:10085000008D0002008B0003008800020086000269
:100860000084000300810002007F0002007D00027E
:10087000007B000200790002007700010076000290
:10088000007400020072000100710002006F00029B
:10089000006D0001006C0002006A000100690002A6
:1008A00000670001006600010065000100640002AD
:1008B000006200010061000100600001005F0002B1
:1008C000005D0001005C0001005B0001005A0001B6
:1008D00000590001005800010057000100560001B6
:1008E00000550001005400010053000000530001B6
:1008F000005200010051000100500001004F0001B2
:10090000004E0000004E0001004D0001004C0001AF
:10091000004B0000004B0001004A000100490001AB
:1009200000480000004800010047000100460000A8
:1009300000460001004500000045000100440001A0
:10094000004300000043000100420000004200019B
:10095000004100000041000100400001003F000094
:10096000003F0001003E0000003E0001003D00008D
:10097000003D0001003C0000003C0000003C000184
:10098000003B0000003B0001003A0000003A00017B
:100990000039000000390001003800000038000074
:1009A0000038000100370000003700010036000069
:1009B0000036000000360001003500000035000060
:1009C0000035000100340000003400000034000154
:1009D000003300000033000000330001003200004B
:1009E0000032000000320001003100000031000040
:1009F0000031000100300000003000000030000134
:100A0000002F0000002F0000002F0000002F000129
:100A1000002E0000002E0000002E0001002D00001E
:100A2000002D0000002D0000002D0001002C000012
:100A3000002C0000002C0000002C0001002B000006
:100A4000002B0000002B0000002B0001002A0000FA
:100A5000002A0000002A0000002A000100290000EE
:100A600000290000002900000029000000290001E1
:100A700000280000002800000028000000280000D6
:100A800000280001002700000027000000270000C8
:100A900000270000002700010026000000260000BB
:100AA00000260000002600000026000100250000AE
:100AB00000250000002500000025000000250000A2
:100AC0000025000100240000002400000024000094
:100AD0000024000000240001002300000023000087
:100AE000002300000023000000230000002300007A
:100AF000002300010022000000220000002200006C
:100B0000002200000022000000220001002100005D
:100B10000021000000210000002100000021000051
:100B20000021000000210001002000000020000042
:100B30000020000000200000002000000020000035
:100B40000020000000200001001F0000001F000026
:100B5000001F0000001F0000001F0000001F000019
:100B6000001F0001001E0000001E0000001E00000B
:100B7000001E00000024F4D43050C38E20C2A240D6
:100B800017828B7011127A910D816CD90AA861E1DC
:100B900008C7586607615143061E4B5D05C145A74E
:100BA000041A411104093D9803713931034036DBC1
:100BB0000265339102D4305402802E1D02632CEE64
:100BC00001752AC501B028A001102781018F256475
:100BD000012B244B01E0223401AC211F018D200D9B
:100BE00001801FFC00841EED00971DDF00B81CD2A1
:100BF00000E61BC600201BBC00641AB200B219A894
:100C0000000A19A0006A189900D117910040178BAB
:100C100000B516840031167E00B31579003A1573BD
:100C200000C7146F0058146A00EE1366008813633F
:100C30000025135E00C7125B006C1257001512549A
:100C400000C111510070114F0021114B00D6104905
:100C5000008D1047004610440002104200C00F40B3
:100C600000800F3E00420F3C00060F3B00CB0E38C9
:100C700000930E37005C0E3500270E3400F30D3262
:100C800000C10D3100900D3000600D2E00320D2D91
:100C900000050D2C00D90C2B00AE0C2900850C2969
:100CA000005C0C2700350C27000E0C2600E80B24F6
:100CB00000C40B2400A00B23007D0B23005A0B2142
:100CC00000390B2100180B2000F80A1F00D90A1E5A
:100CD00000BB0A1E009D0A1D00800A1D00630A1C3D
:100CE00000470A1B002C0A1B00110A1A00F7091AF8
:100CF00000DD091900C4091900AB09190092091790
:100D0000007B091800630917004C09160036091604
:100D100000200916000A091500F5081500E008145E
:100D200000CC081400B8081400A40814009008139C
:100D3000007D0812006B08130058081200460812C4
:100D400000340811002308110012081100010811D5
:100D500000F0071000E0071000D0071000C00710D7
:100D600000B0070F00A107100091070E0083070FC6
:100D70000074070F0065070E0057070E0049070EA5
:100D8000003B070D002E070E0020070D0013070D76
:100D90000006070D00F9060C00ED060D00E0060C3C
:100DA00000D4060C00C8060C00BC060C00B0060CF3
:100DB00000A4060B0099060C008D060B0082060BA2
:100DC0000077060B006C060B0061060A0057060B45
:100DD000004C060A0042060A0038060A002E060ADF
:100DE0000024060A001A060A001006090007060A6F
:100DF00000FD050900F4050900EB050900E20509FD
:100E000000D9050900D0050900C7050900BE05097C
:100E100000B5050800AD050800A50509009C0508FA
:100E200000940508008C050800840508007C05086E
:100E300000740508006C050700650508005D0507DE
:100E400000560508004E0507004705070040050845
:100E50000038050700310507002A050700230507AC
:100E6000001C050600160507000F0507000805060B
:100E70000002050700FB040600F5040700EE040667
:100E800000E8040600E2040700DB040600D50406BF
:100E900000CF040600C9040600C3040600BD040612
:100EA00000B7040600B1040500AC040600A6040661
:100EB00000A00405009B04060095040500900406AC
:100EC000008A04050085040500800406007A0405F4
:100ED0000075040500700405006B04050066040538
:100EE00000610405005C0405005704050052040578
:100EF000004D04050048040500430405003E0404B9
:100F0000003A04050035040500300404002C0405F3
:100F10000027040400230405001E0404001A04042E
:100F20000016040500110404000D04040009040562
:100F3000000404040000040400FC030400F803049B
:100F400000F4030400F0030400EC030400E80304CD
:100F500000E4030400E0030400DC030400D80304FD
:100F600000D4030400D0030400CC030400C803032E
:100F700000C50303006563686F3A00205A3A0020F9
:100F8000593A0020583A00656E6473746F7073208C
:100F90006869743A20004572726F723A0054656D48
:100FA000706572617475726520686561746564202E
:100FB000626564207377697463686564206F666630
:100FC0002E204D415854454D502074726967676515
:100FD000726564202121003A204578747275646539
:100FE00072207377697463686564206F66662E206B
:100FF0004D494E54454D502074726967676572655E
:10100000642021003A2045787472756465722073FB
:1010100077697463686564206F66662E204D415859
:1010200054454D502074726967676572656420216C
:1010300000202D20496E76616C6964206578747299
:1010400075646572206E756D626572202100700195
:101050002C0190012701B0012201C0011D01F00106
:1010600018011002130130020E0160020901900202
:101070000401C002FF000003FA004003F5008003F2
:10108000F000D003EB002004E6007004E100E0046F
:10109000DC004005D700C005D2004006CD00D006D8
:1010A000C8008007C3003008BE00F008B900C009BE
:1010B000B400B00AAF00B00BAA00D00CA500000E1F
:1010C000A000500F9B00C010960050129100001419
:1010D0008C00C0158700B0178200B0197D00D01BAE
:1010E0007800001E730040206E0090226900F024FA
:1010F000640040275F0090295A00E02B5500102E15
:10110000500020304B0010324600E0334100903553
:101110003C001037370070383200A0392D00B03A4B
:101120002800A03B2300603C1E00103D1900903DAC
:101130001400103E0F00703E0A00C03E0500003F44
:101140000000504944204175746F74756E652066C7
:10115000696E6973686564202120506C6163652045
:10116000746865204B702C204B6920616E64204BA5
:101170006420636F6E7374616E747320696E207483
:10118000686520636F6E66696775726174696F6EFA
:101190002E6800504944204175746F74756E652047
:1011A0006661696C6564212074696D656F75740092
:1011B00020403A006F6B20543A006F6B20423A0097
:1011C000504944204175746F74756E65206661697D
:1011D0006C6564212054656D70657261747572650B
:1011E00020746F206869676800204B643A200020F3
:1011F0004B693A2000204B703A200020436C617309
:1012000069632050494420002054753A2000204B47
:10121000753A2000206D61783A2000206D696E3AA1
:10122000200020643A200020626961733A200001A6
:101230002902290429082910292029402980290167
:101240002C022C01260226042608261026202640E1
:10125000268026402C802C012302230423082310FF
:101260002320234023802301200220042008201073
:1012700020202040208020102C202C012F022F0421
:101280002F082F102F202F402F802F7EFE7EFD7ED7
:10129000FB7EF77EEF7EDF7EBF7E7F00010000CF0A
:1012A000121200020000E1124300030000241304A4
:1012B0000103090428131802030904421316030347
:1012C00009045A130C0001C1020180360181361253
:1012D00001000202000020C0168304000101020385
:1012E0000109024300020100C032090400000102AA
:1012F000020100052400100105240100010424025C
:1013000006052406000107058203080040090401C0
:1013100000020A00000007050302400000070584E0
:10132000024000000403090418035400650065002E
:101330006E00730079006400750069006E006F0034
:1013400000001603550053004200200053006500C2
:101350007200690061006C0000000C033100320073
:101360003300340035000000494E46494E49545977
:101370004E414ECDCCCC3D0AD7233C17B7D1387760
:10138000CC2B329595E6241FB14F0A000020410076
:1013900000C84200401C4620BCBE4CCA1B0E5AAEC0
:1013A000C59D7400E86011241FBECFEFD0E2DEBF00
:1013B000CDBF12E0A0E0B1E0E6E8FDEC00E00BBF3D
:1013C00002C007900D92A43FB107D9F71BBE1BE0E6
:1013D000A4EFB2E001C01D92A430B107E1F713E120
:1013E000C6EAD3E104C02297FE010E947B66C43A9C
:1013F000D107C9F70E94185E0C94C1660C940000D6
:10140000A0E0B0E0E6E0FAE00C949066EC015B014D
:101410006115710519F0FB0191838083F9908F2D7F
:1014200090E00E947F66892BC9F7FDE2FF1621F448
:10143000F990EE24E39405C02BE2F21609F4F9903A
:10144000EE248E0101501040C80168E673E143E0CC
:1014500050E062D2892BF9F48E010E5F1F4FC80154
:101460006BE673E145E050E057D2892B19F48E0109
:10147000095F1F4FA114B10419F0F5011183008316
:10148000E0FC04C070E090E080E813C070E090E001
:1014900080E86FEF07C1C80160E773E143E050E007
:1014A0003BD2892B69F4A114B10429F470E090E0D7
:1014B00080EC6FE7F7C02296F501D183C083F6CFA9
:1014C0008824992440E050E060E070E0EF2DE05384
:1014D000EA30A0F5F2E0EF2A8E2D90E09C01287012
:1014E0003070E2FE06C0232B79F50894811C911C14
:1014F0002BC0232B19F0089481089108DB01CA0145
:1015000012E0880F991FAA1FBB1F1A95D1F7480F29
:10151000591F6A1F7B1F440F551F661F771F4E0FF1
:10152000511D611D711D483929E9520729E96207DA
:1015300029E1720748F084E0E82A06C0EE3F31F462
:10154000E3FC39C098E0E92AF990C0CFE53311F007
:10155000E53189F529912D3219F4E0E1EE2A05C033
:101560002B3219F081E090E003C0299182E090E0F5
:10157000E22FE053EA3018F0C81BD90B1CC020E062
:1015800030E0FCE020383F075CF4C901880F991F68
:10159000880F991F280F391F220F331F2E0F311D5F
:1015A000E991E053EA3068F3E4FE03C030952195F9
:1015B0003F4F820E931ECE2CDD24E1FE07C0A11406
:1015C000B10421F02197F501D183C083CB01BA0189
:1015D0000E94E4627B018C01F3E0CF22DD2423E052
:1015E000C216D10421F417FB109517F91095570175
:1015F0006801C801B70120E030E040E050E00E94FF
:101600004462882309F44AC097FE0DC027E8E22E01
:1016100023E1F22E9094819491089394C0E2D0E05B
:1016200000E010E012C09FE9E92E93E1F92EF6CF19
:10163000F7012591359145915491C601B5010E945C
:1016400024655B016C018C1A9D0A8C169D0684F73B
:10165000D595C7950F5F1F4F0630110529F08CEF08
:101660009FEFE80EF91EF1CFC501D6017C018D0177
:101670008C2D880F8D2D881F8F3F51F0C601B5012D
:1016800020E030E040E050E00E944462882331F4E2
:1016900082E290E09093030B8093020B7E2D9F2DAE
:1016A000802F612F272F392F482F562FB901CA01BC
:1016B000CDB7DEB7ECE00C94AC662F923F925F9210
:1016C0006F927F928F929F92AF92BF92CF92DF9252
:1016D000EF92FF920F931F93CF93DF938C011B0127
:1016E000EA016115710519F0FB0191838083209750
:1016F00049F0CE010297839728F020E030E040E0E7
:1017000050E0F6C0F801A1908F018A2D90E00E9470
:101710007F66892BB9F7FDE2AF1631F4F801A1908D
:101720008F015524539407C0FBE2AF1619F4F8015A
:10173000A1908F015524209719F0C031D105C1F433
:10174000F0E3AF1679F4F8018081883711F088351D
:1017500049F4F801A1800E5F1F4FF2E05F2AC0E15B
:10176000D0E006C0209721F480E3A816E9F427C052
:10177000C830D10531F1C930D10524F4C230D105CA
:1017800031F50CC0CA30D10589F0C031D105F9F46A
:10179000C12CD12CE12CB8E0FB2E28C0C12CD12CBF
:1017A000E12CA0E4FA2E22C0CAE0D0E0FCECCF2E5F
:1017B000FCECDF2EFCECEF2EFCE0FF2E17C0C8E0A7
:1017C000D0E0C12CD12CE12CE0E1FE2E0FC09E0117
:1017D000442737FD4095542F60E070E080E090E8AA
:1017E0000E942866C901DA016C017D0120E030E029
:1017F00040E050E060E03E01882477FC8094982C23
:1018000070EDB72EBA0CE9E0EB1570F48A2D815417
:101810008A3118F499ECB92E06C08A2D81568A3186
:1018200050F589EAB82EBA0C8B2D90E08C179D07E5
:1018300014F56F3FE1F0C216D306E406F506B0F0EA
:10184000CA01B901A40193010E94F6659B01AC0194
:101850002B0D311D411D511D2130F0E03F07F0E0FF
:101860004F07F0E85F0710F461E001C06FEFF80187
:10187000A1908F01C5CF2114310481F0662331F08E
:1018800001501040F1011183008308C051FE1AC0BD
:1018900002501040F1011183008314C067FF12C091
:1018A00050FC05C02FEF3FEF4FEF5FE704C020E093
:1018B00030E040E050E882E290E09093030B8093A8
:1018C000020B16C050FE08C05095409530952195EA
:1018D0003F4F4F4F5F4F0CC057FF0AC082E290E06E
:1018E0009093030B8093020B2FEF3FEF4FEF5FE7D7
:1018F000B901CA01DF91CF911F910F91FF90EF9035
:10190000DF90CF90BF90AF909F908F907F906F901F
:101910005F903F902F900895FB01DC0141505040B3
:1019200088F08D9181341CF08B350CF4805E6591CC
:1019300061341CF06B350CF4605E861B611171F331
:10194000990B0895881BFCCFFB0155915523A9F0F5
:10195000BF01DC014D9145174111E1F759F4CD016B
:101960000590002049F04D9140154111C9F3FB014C
:101970004111EFCF81E090E001970895FC01819142
:10198000861721F08823D9F7992708953197CF0139
:101990000895FB01DC014150504030F08D910190E1
:1019A000801919F40020B9F7881B990B0895AEE04F
:1019B000B0E0EDEDFCE00C9498660D891E898EE098
:1019C0008C831A8309838FEF9FE79E838D839E010B
:1019D000275E3F4FCE0101966F89788DA9010AD00D
:1019E0002F813885020F131FF80110822E96E4E034
:1019F0000C94B466ABE0B0E0E0E0FDE00C948A66E5
:101A00003C012B015A01FC0117821682838181FD62
:101A100003C06FEF7FEFB9C19AE0892E1E010894D1
:101A2000211C311CF3012381F20123FD859123FF49
:101A300081912F01882309F4A5C1853239F423FD52
:101A4000859123FF81912F01853221F490E0B3012C
:101A5000B7D1E8CF982FFF24EE249924FFE1FF159A
:101A6000D0F09B3269F09C3228F4903259F09332D6
:101A700091F40EC09D3249F0903369F441E024C0E6
:101A800052E0F52A84E0F82A28C098E0F92A25C017
:101A9000E0E1FE2A22C0F7FC29C0892F80538A305A
:101AA00070F4F6FE05C0989C902C1124980E15C079
:101AB000E89CE02C1124E80EF0E2FF2A0EC09E32D2
:101AC00029F4F6FC5FC140E4F42A07C09C3619F4FF
:101AD00050E8F52A02C0983649F4F20123FD9591A9
:101AE00023FF91912F01992309F0B8CF892F8554B5
:101AF000833018F08052833038F444E050E0A40E74
:101B0000B51E5FE359830FC0933631F0933779F0F8
:101B1000933509F052C01FC0F5018081898342E0EE
:101B200050E0A40EB51E610101E010E011C0F50106
:101B3000C080D180F6FC03C06FEF7FEF02C0692D3B
:101B400070E042E050E0A40EB51EC6012ED18C011B
:101B50005FE7F52213C0F501C080D180F6FC03C019
:101B60006FEF7FEF02C0692D70E042E050E0A40EFD
:101B7000B51EC6010FD18C0150E8F52AF3FE06C050
:101B800018C080E290E0B3011BD1EA948E2D90E062
:101B900008171907B0F30DC0F601F7FC8591F7FEA1
:101BA00081916F0190E0B3010BD1E110EA940150F3
:101BB00010400115110581F7E2C0943611F09936F5
:101BC00061F5F7FE08C0F501208131814281538122
:101BD00084E090E00AC0F501808191819C01442756
:101BE00037FD4095542F82E090E0A80EB91E9FE685
:101BF000F92257FF09C050954095309521953F4FE8
:101C00004F4F5F4FE0E8FE2ACA01B901A1012AE067
:101C100030E002D1D82ED2183FC0953729F41F2DBD
:101C20001F7E2AE030E01DC01F2D197F9F3661F016
:101C3000903720F4983509F0A5C00FC0903739F0DF
:101C4000983709F09FC004C028E030E00AC0106156
:101C500014FD146020E130E004C014FD166020E1A2
:101C600032E017FF08C0F5016081718182819381A4
:101C700044E050E008C0F50180819181BC0180E022
:101C800090E042E050E0A40EB51EA101C5D0D82ED0
:101C9000D2188FE7F82EF122F6FE0BC05EEFF52288
:101CA000D91438F4F4FE07C0F2FC05C08FEEF82218
:101CB00002C01D2D01C0192DF4FE0DC0FE01ED0D59
:101CC000F11D8081803319F499EEF92208C01F5F5D
:101CD000F2FE05C003C08F2D867809F01F5F0F2D1F
:101CE000F3FC13C0F0FE0EC01E1510F09D2C0AC0B0
:101CF0009D2C9E0C911A1E2D05C080E290E0B30130
:101D00005FD01F5F1E15C8F304C01E1510F4E11A42
:101D100001C0EE2404FF0EC080E390E0B30150D078
:101D200002FF1BC001FD03C088E790E00EC088E5FC
:101D300090E00BC0802F867881F001FF02C08BE21B
:101D400001C080E2F7FC8DE290E0B30139D005C01C
:101D500080E390E0B30134D09A94D914C8F3DA94B4
:101D6000F101ED0DF11D808190E0B30129D0DD205E
:101D7000B1F705C080E290E0B30122D0EA94EE20F2
:101D8000C9F750CEF30166817781CB012B96E2E152
:101D90000C94A666FC010590615070400110D8F7C4
:101DA000809590958E0F9F1F0895FC0161507040A3
:101DB00001900110D8F7809590958E0F9F1F089580
:101DC0000F931F93CF93DF938C01EB018B8181FFE6
:101DD0001BC082FF0DC02E813F818C819D81281701
:101DE000390764F4E881F9810193F983E88306C037
:101DF000E885F985802F0995892B31F48E819F81A3
:101E000001969F838E8302C00FEF1FEFC801DF9101
:101E1000CF911F910F910895FA01AA27283051F10F
:101E2000203181F1E8946F936E7F6E5F7F4F8F4F0B
:101E30009F4FAF4FB1E03ED0B4E03CD0670F781F6A
:101E4000891F9A1FA11D680F791F8A1F911DA11D4F
:101E50006A0F711D811D911DA11D20D009F4689488
:101E60003F912AE0269F11243019305D3193DEF630
:101E7000CF010895462F4770405D4193B3E00FD0E6
:101E8000C9F7F6CF462F4F70405D4A3318F0495DD1
:101E900031FD4052419302D0A9F7EACFB4E0A695B4
:101EA0009795879577956795BA95C9F700976105D6
:101EB000710508959B01AC010A2E0694579547952C
:101EC00037952795BA95C9F7620F731F841F951F21
:101ED000A01D0895DF93CF930F92CDB7DEB7FC011D
:101EE0006983A081B18114962D913C911597BE0113
:101EF0006F5F7F4F41E050E0F90109950F90CF915E
:101F0000DF9108950F931F93DF93CF93CDB7DEB783
:101F100064970FB6F894DEBF0FBECDBF809100016D
:101F200090910101A0910201B09103018D879E87DC
:101F3000AF87B88BFE013D9644E650E08081F99969
:101F4000FECF1FBA52BD41BD80BD0FB6F894FA9ABC
:101F5000F99A0FBE4F5F5F4F4836510511F0319629
:101F6000EDCFECE0F5E08081F999FECF1FBA52BDCC
:101F700041BD80BD0FB6F894FA9AF99A0FBE4F5F33
:101F80005F4F4837510511F03196EDCFECEFF4E09B
:101F90008081F999FECF1FBA52BD41BD80BD0FB6F9
:101FA000F894FA9AF99A0FBE4F5F5F4F483851057F
:101FB00011F03196EDCFECE1F5E08081F999FECF9B
:101FC0001FBA52BD41BD80BD0FB6F894FA9AF99A76
:101FD0000FBE4F5F5F4F4839510511F03196EDCF7D
:101FE000E0E3F5E08081F999FECF1FBA52BD41BD13
:101FF00080BD0FB6F894FA9AF99A0FBE4F5F5F4F03
:102000004C39510511F03196EDCFE4E3F5E08081D4
:10201000F999FECF1FBA52BD41BD80BD0FB6F894ED
:10202000FA9AF99A0FBE4F5F5F4F403A510511F08F
:102030003196EDCFECE2F5E08081F999FECF1FBA41
:1020400052BD41BD80BD0FB6F894FA9AF99A0FBE01
:102050004F5F5F4F443A510511F03196EDCFE4E404
:10206000F5E08081F999FECF1FBA52BD41BD80BD18
:102070000FB6F894FA9AF99A0FBE4F5F5F4F483A3D
:10208000510511F03196EDCFE8EFF4E08081F99938
:10209000FECF1FBA52BD41BD80BD0FB6F894FA9A6B
:1020A000F99A0FBE4F5F5F4F4C3A510511F03196D0
:1020B000EDCFE8E3F5E08081F999FECF1FBA52BD7C
:1020C00041BD80BD0FB6F894FA9AF99A0FBE4F5FE2
:1020D0005F4F403B510511F03196EDCFECE3F5E059
:1020E0008081F999FECF1FBA52BD41BD80BD0FB6A8
:1020F000F894FA9AF99A0FBE4F5F5F4F443B51052F
:1021000011F03196EDCFE0E4F5E08081F999FECF52
:102110001FBA52BD41BD80BD0FB6F894FA9AF99A24
:102120000FBE4F5F5F4F483B510511F03196EDCF29
:10213000EAE0F3E08081F999FECF1FBA52BD41BDBC
:1021400080BD0FB6F894FA9AF99A0FBE4F5F5F4FB1
:10215000443C510511F03196EDCF80EA90E09A832E
:10216000898386E490E09C838B832FEF30E03E836D
:102170002D838EEB90E098878F838FE590E09A8790
:1021800089873C872B87FE0131968081F999FECFA4
:102190001FBA52BD41BD80BD0FB6F894FA9AF99AA4
:1021A0000FBE4F5F5F4F463C510571F7FE013396FE
:1021B0008081F999FECF1FBA52BD41BD80BD0FB6D7
:1021C000F894FA9AF99A0FBE4F5F5F4F483C510559
:1021D00011F03196EDCFFE0135968081F999FECF51
:1021E0001FBA52BD41BD80BD0FB6F894FA9AF99A54
:1021F0000FBE4F5F5F4F4A3C510511F03196EDCF56
:10220000FE0137968081F999FECF1FBA52BD41BDBC
:1022100080BD0FB6F894FA9AF99A0FBE4F5F5F4FE0
:102220004C3C510511F03196EDCFFE01399680817D
:10223000F999FECF1FBA52BD41BD80BD0FB6F894CB
:10224000FA9AF99A0FBE4F5F5F4F4E3C510511F05D
:102250003196EDCFFE013B968081F999FECF1FBAF2
:1022600052BD41BD80BD0FB6F894FA9AF99A0FBEDF
:102270004F5F5F4F403D510511F03196EDCFE4E5E2
:10228000F2E08081F999FECF1FBA52BD41BD80BDF9
:102290000FB6F894FA9AF99A0FBE4F5F5F4F443D1C
:1022A000510511F03196EDCFE8E5F2E08081F99922
:1022B000FECF1FBA52BD41BD80BD0FB6F894FA9A49
:1022C000F99A0FBE4F5F5F4F483D510511F03196AF
:1022D000EDCFECE5F2E08081F999FECF1FBA52BD57
:1022E00041BD80BD0FB6F894FA9AF99A0FBE4B3DE6
:1022F000510521F04F5F5F4F3196EDCF8091040182
:1023000090910501A0910601B0910701898B9A8BEC
:10231000AB8BBC8BFE01719684E690E02081F9992D
:10232000FECF1FBA92BD81BD20BD0FB6F894FA9AB8
:10233000F99A0FBE8736910519F001963196EECFC6
:10234000E3EEF0E064918F0107C089EF9AE0C2DD0F
:102350000F5F1F4FF80164916623B9F7E2EBF2E0DB
:1023600064918F0107C089EF9AE0B4DD0F5F1F4FC2
:10237000F80164916623B9F789EF9AE06AE0AADD73
:1023800064960FB6F894DEBF0FBECDBFCF91DF913C
:102390001F910F910895DF93CF93CDB7DEB7E097EC
:1023A0000FB6F894DEBF0FBECDBFDE011196E2E995
:1023B000F2E080E101900D928150E1F7DE0151964B
:1023C000E2E8F2E080E101900D928150E1F7DE0158
:1023D0009196E2E7F2E080E101900D928150E1F701
:1023E00089819A81AB81BC8180930C0590930D0506
:1023F000A0930E05B0930F0589899A89AB89BC8992
:102400008093FC049093FD04A093FE04B093FF041A
:1024100089A19AA1ABA1BCA180931C0590931D0535
:10242000A0931E05B0931F058D819E81AF81B88555
:102430008093100590931105A0931205B093130596
:102440008D899E89AF89B88D809300059093010591
:10245000A0930205B09303058DA19EA1AFA1B8A5DD
:102460008093200590932105A0932205B093230526
:1024700089859A85AB85BC85809314059093150555
:10248000A0931605B0931705898D9A8DAB8DBC8DE1
:102490008093040590930505A0930605B093070566
:1024A00089A59AA5ABA5BCA5809324059093250585
:1024B000A0932605B09327058D859E85AF85B889A5
:1024C0008093180590931905A0931A05B0931B05E6
:1024D0008D8D9E8DAF8DB8A18093080590930905D1
:1024E000A0930A05B0930B058DA59EA5AFA5B8A92D
:1024F0008093280590932905A0932A05B0932B0576
:1025000080E090E0AAE7B4E4809330059093310531
:10251000A0933205B093330580933405909335052D
:10252000A0933605B093370520E030E040E050E05E
:1025300020932C0530932D0540932E0550932F05A5
:1025400080E29EE4A0E0B0E08093F8049093F90468
:10255000A093FA04B093FB042093440530934505FF
:10256000409346055093470580E090E0A0EAB1E42F
:102570008093380590933905A0933A05B0933B05B5
:102580008DEC9CECACECBEE380933C0590933D0558
:10259000A0933E05B0933F0580E090E0A0EAB0E450
:1025A0008093400590934105A0934205B093430565
:1025B0002093120330931303409314035093150395
:1025C00020930E0330930F03409310035093110395
:1025D00020930A0330930B0340930C0350930D0395
:1025E0008DE39AE0A7E7B1E48093540290935502FB
:1025F000A0935602B09357028FEE96EEA8E8BDE383
:102600008093580290935902A0935A02B0935B02B0
:102610008CE59FE6AEE5B4E480935C0290935D02A6
:10262000A0935E02B0935F0280E090E0A0E8BFE379
:102630008093600290936102A0936202B093630260
:10264000E0960FB6F894DEBF0FBECDBFCF91DF91FD
:1026500008950F931F93CF93DF9303EE10E0F801DB
:102660006491E80106C089EF9AE034DC2196FE010E
:1026700064916623C1F7E2EAF2E06491EF0106C0DB
:1026800089EF9AE027DC2196FE0164916623C1F769
:1026900089EF9AE06AE01EDCF8016491C3EED0E0B5
:1026A00006C089EF9AE016DC2196FE01649166234C
:1026B000C1F740910C0550910D0560910E05709188
:1026C0000F058AE992E00E948A1C40911005509102
:1026D0001105609112057091130587E992E00E943F
:1026E0008A1C409114055091150560911605709152
:1026F000170584E992E00E948A1C409118055091C8
:10270000190560911A0570911B0581E992E00E94FC
:102710008A1CE091F90AF091FA0A0280F381E02D17
:1027200089EF9AE068E071E0099589EF9AE06AE044
:10273000D1DBF8016491C3EED0E006C089EF9AE0E6
:10274000C9DB2196FE0164916623C1F7E7E7F2E059
:102750006491EF0106C089EF9AE0BCDB2196FE018F
:1027600064916623C1F789EF9AE06AE0B3DBF80170
:102770006491C3EED0E006C089EF9AE0ABDB21960E
:10278000FE0164916623C1F74091FC045091FD0461
:102790006091FE047091FF048EE692E00E948A1C14
:1027A000409100055091010560910205709103056B
:1027B0008BE692E00E948A1C409104055091050529
:1027C000609106057091070588E692E00E948A1CD8
:1027D000409108055091090560910A0570910B051B
:1027E00085E692E00E948A1CE091F90AF091FA0ACB
:1027F0000280F381E02D89EF9AE068E071E00995AD
:1028000089EF9AE06AE066DBF8016491C3EED0E0FC
:1028100006C089EF9AE05EDB2196FE016491662393
:10282000C1F7E7E4F2E06491EF0106C089EF9AE0B6
:1028300051DB2196FE0164916623C1F789EF9AE08E
:102840006AE048DBF8016491C3EED0E006C089EF8E
:102850009AE040DB2196FE0164916623C1F7409126
:102860001C0550911D0560911E0570911F058EE39A
:1028700092E00E94431C40912005509121056091F7
:102880002205709123058BE392E0FDD7409124054A
:1028900050912505609126057091270588E392E007
:1028A000F2D7409128055091290560912A05709131
:1028B0002B0585E392E0E7D7E091F90AF091FA0A57
:1028C0000280F381E02D89EF9AE068E071E00995DC
:1028D00089EF9AE06AE0FEDAF8016491C3EED0E095
:1028E00006C089EF9AE0F6DA2196FE01649166232C
:1028F000C1F7E0E0F2E06491EF0106C089EF9AE0F1
:10290000E9DA2196FE0164916623C1F789EF9AE026
:102910006AE0E0DAF8016491C3EED0E006C089EF26
:102920009AE0D8DA2196FE0164916623C1F74091BE
:10293000300550913105609132057091330587EF74
:1029400091E0E8D740913405509135056091360506
:102950007091370584EF91E0DDD7E091F90AF091AD
:10296000FA0A0280F381E02D89EF9AE068E071E0D5
:10297000099589EF9AE06AE0ADDAF8016491C3EE57
:10298000D0E006C089EF9AE0A5DA2196FE016491B5
:102990006623C1F7EBE5F1E06491EF0106C089EF32
:1029A0009AE098DA2196FE0164916623C1F789EFD7
:1029B0009AE06AE08FDAF8016491C3EED0E006C0D5
:1029C00089EF9AE087DA2196FE0164916623C1F7C8
:1029D00040912C0550912D0560912E0570912F0589
:1029E00082E591E097D7409144055091450560916B
:1029F0004605709147058FE491E08CD74091F8042B
:102A00005091F9046091FA047091FB048CE491E018
:102A10003AD7409138055091390560913A05709147
:102A20003B0589E491E076D740913C0550913D0506
:102A300060913E0570913F0586E491E06BD740912F
:102A4000400550914105609142057091430583E432
:102A500091E060D7E091F90AF091FA0A0280F381DF
:102A6000E02D89EF9AE068E071E0099589EF9AE03E
:102A70006AE030DAF8016491C3EED0E006C089EF75
:102A80009AE028DA2196FE0164916623C1F7E1E31A
:102A9000F1E06491EF0106C089EF9AE01BDA21961C
:102AA000FE0164916623C1F789EF9AE06AE012DAC9
:102AB000F8016491C3EED0E006C089EF9AE00ADA2B
:102AC0002196FE0164916623C1F740910A0350915B
:102AD0000B0360910C0370910D0388E291E01AD70B
:102AE00040910E0350910F036091100370911103F8
:102AF00085E291E00FD7409112035091130360914A
:102B000014037091150382E291E004D7E091F90A71
:102B1000F091FA0A0280F381E02D89EF9AE068E0F3
:102B200071E0099589EF9AE06AE0D4D9F8016491DF
:102B3000C3EED0E006C089EF9AE0CCD92196FE0121
:102B400064916623C1F7E4E1F1E06491EF0106C00E
:102B500089EF9AE0BFD92196FE0164916623C1F7FF
:102B600089EF9AE06AE0B6D9F8016491C3EED0E04B
:102B700006C089EF9AE0AED92196FE0164916623E2
:102B8000C1F74091540250915502609156027091E4
:102B900057028AE091E0BED66091580270915902C6
:102BA00080915A0290915B022DEB37E346E05EE3A1
:102BB0000E944B62AB01BC0187E091E088D6609136
:102BC0005C0270915D0280915E0290915F022DEB3C
:102BD00037E346E05EE30E942465AB01BC0184E07C
:102BE00091E075D6E091F90AF091FA0A0280F3813A
:102BF000E02D89EF9AE068E071E0099589EF9AE0AD
:102C00006AE068D9DF91CF911F910F9108950F93DA
:102C10001F93DF93CF93CDB7DEB764970FB6F894C9
:102C2000DEBF0FBECDBF8091040190910501A09140
:102C30000601B0910701898B9A8BAB8BBC8BFE018F
:102C40003D9604E610E0F999FECF12BD01BDF89A59
:102C500080B580830F5F1F4F0836110511F0319644
:102C6000F2CFCE014196BE01635F7F4F43E050E05B
:102C70000E94C90C009709F06DC1ECE0F5E0F999EC
:102C8000FECF12BD01BDF89A80B580830F5F1F4F44
:102C90000837110511F03196F2CFECEFF4E0F99915
:102CA000FECF12BD01BDF89A80B580830F5F1F4F24
:102CB0000838110511F03196F2CFECE1F5E0F99901
:102CC000FECF12BD01BDF89A80B580830F5F1F4F04
:102CD0000839110511F03196F2CFE0E3F5E0F999EA
:102CE000FECF12BD01BDF89A80B580830F5F1F4FE4
:102CF0000C39110511F03196F2CFE4E3F5E0F999C2
:102D0000FECF12BD01BDF89A80B580830F5F1F4FC3
:102D1000003A110511F03196F2CFECE2F5E0F999A5
:102D2000FECF12BD01BDF89A80B580830F5F1F4FA3
:102D3000043A110511F03196F2CFE4E4F5E0F99987
:102D4000FECF12BD01BDF89A80B580830F5F1F4F83
:102D5000083A110511F03196F2CFE8EFF4E0F99955
:102D6000FECF12BD01BDF89A80B580830F5F1F4F63
:102D70000C3A110511F03196F2CFE8E3F5E0F9993C
:102D8000FECF12BD01BDF89A80B580830F5F1F4F43
:102D9000003B110511F03196F2CFECE3F5E0F99923
:102DA000FECF12BD01BDF89A80B580830F5F1F4F23
:102DB000043B110511F03196F2CFE0E4F5E0F9990A
:102DC000FECF12BD01BDF89A80B580830F5F1F4F03
:102DD000083B110511F03196F2CFEAE0F3E0F999E2
:102DE000FECF12BD01BDF89A80B580830F5F1F4FE3
:102DF000043C110511F03196F2CFFE013196F9999C
:102E0000FECF12BD01BDF89A80B580830F5F1F4FC2
:102E1000063C110599F7FE013396F999FECF12BDD4
:102E200001BDF89A80B580830F5F1F4F083C1105E4
:102E300011F03196F2CFFE013596F999FECF12BD11
:102E400001BDF89A80B580830F5F1F4F0A3C1105C2
:102E500011F03196F2CFFE013796F999FECF12BDEF
:102E600001BDF89A80B580830F5F1F4F0C3C1105A0
:102E700011F03196F2CFFE013996F999FECF12BDCD
:102E800001BDF89A80B580830F5F1F4F0E3C11057E
:102E900011F03196F2CFFE013B96F999FECF12BDAB
:102EA00001BDF89A80B580830F5F1F4F003D11056B
:102EB00011F03196F2CFE4E5F2E0F999FECF12BDC0
:102EC00001BDF89A80B580830F5F1F4F043D110547
:102ED00011F03196F2CFE8E5F2E0F999FECF12BD9C
:102EE00001BDF89A80B580830F5F1F4F083D110523
:102EF00011F03196F2CFECE5F2E0F999FECF12BD78
:102F000001BDF89A80B580830B3D110521F00F5F5C
:102F10001F4F3196F2CFE3EEF0E064918F0108C0CD
:102F200089EF9AE00E946A0F0F5F1F4FF8016491CA
:102F30006623B1F7E9EEF0E064918F0108C089EFF4
:102F40009AE00E946A0F0F5F1F4FF8016491662399
:102F5000B1F71CC020DAE3EEF0E064918F0108C005
:102F600089EF9AE00E946A0F0F5F1F4FF80164918A
:102F70006623B1F7E091F90AF091FA0A0280F38131
:102F8000E02D89EF9AE069E071E0099589EF9AE018
:102F90006AE00E946A0F5DDB64960FB6F894DEBFAC
:102FA0000FBECDBFCF91DF911F910F910895DC012E
:102FB000ED91FC910280F381E02D09950895CF9366
:102FC000DF930FB6F8948091F00A9091F10AA091E6
:102FD000F20AB091F30A0FBE80933703909338033F
:102FE000A0933903B0933A03E4E6F3E06491EF0170
:102FF00007C089EF9AE00E946A0F2196FE01649152
:103000006623B9F789EF9AE06AE00E946A0FDF91C0
:10301000CF910895089580912D030895CF93DF9364
:103020000E94274F80912D03882309F034C081E04E
:1030300080932D0380912F0390913003A091310351
:10304000B09132038093330390933403A0933503FC
:10305000B0933603E8ECF2E06491EF0107C089EF2A
:103060009AE00E946A0F2196FE0164916623B9F7E7
:10307000EFECF2E06491EF0107C089EF9AE00E9463
:103080006A0F2196FE0164916623B9F789EF9AE0F1
:103090006AE00E946A0FDF91CF910895CF93DF938A
:1030A000F8940E94274F779A769A479A439AE8ECC9
:1030B000F2E06491EF0107C089EF9AE00E946A0F85
:1030C0002196FE0164916623B9F7E5E4F3E064918B
:1030D000EF0107C089EF9AE00E946A0F2196FE0176
:1030E00064916623B9F789EF9AE06AE00E946A0F5B
:1030F000FFCFEF92FF920F931F930FB6F89480913A
:10310000F00A9091F10AA091F20AB091F30A0FBE71
:10311000E0903B03F0903C0300913D0310913E038F
:1031200020913703309138034091390350913A038D
:10313000821B930BA40BB50BE816F9060A071B07B5
:1031400030F4E114F1040105110509F0A7DFE09066
:103150003A02F0903B0200913C0210913D02E114D2
:10316000F1040105110531F10FB6F8948091F00AD0
:103170009091F10AA091F20AB091F30A0FBE20914A
:103180003703309138034091390350913A03821B41
:10319000930BA40BB50BE816F9060A071B0750F4AE
:1031A0009091390A80913A0A981721F4779A769A81
:1031B000479A439A0E9456351F910F91FF90EF90C6
:1031C00008956F927F928F929F92AF92BF92CF920B
:1031D000DF92EF92FF920F931F93F82E60913F03BF
:1031E00070914003809141039091420320914303E9
:1031F0003091440340914503509146030E945F641F
:103200003B014C0100D000D000D00DB71EB70F5FBE
:103210001F4F60912A0270912B02882777FD8095BD
:10322000982F0E94E66220913E0230913F02409129
:103230004002509141020E94246520E030E040E7C6
:1032400052E40E944B6220E030E048EC52E40E94DD
:103250004B625B016C01F801608271828282938211
:10326000F4828091220385838AEF92E06BE473E01D
:103270004FE353E020E001E032E0E32E0E94BB3058
:1032800080914B0390914C03A0914D03B0914E035C
:103290008093FA029093FB02A093FC02B093FD028C
:1032A00080914F0390915003A0915103B09152032C
:1032B0008093FE029093FF02A0930003B09301035A
:1032C0008091530390915403A0915503B0915603FC
:1032D0008093020390930303A0930403B093050328
:1032E0008091570390915803A0915903B0915A03CC
:1032F0008093060390930703A0930803B0930903F8
:103300000FB6F8948091F00A9091F10AA091F20A18
:10331000B091F30A0FBE8093370390933803A093C4
:103320003903B0933A038DB79EB706960FB6F8945B
:103330009EBF0FBE8DBF1F910F91FF90EF90DF904A
:10334000CF90BF90AF909F908F907F906F90089597
:10335000CF92DF92EF92FF920F931F930FB6F894E4
:103360008091F00A9091F10AA091F20AB091F30ACB
:103370000FBE8093370390933803A0933903B09323
:103380003A036091FA027091FB028091FC029091E5
:10339000FD0220914B0330914C0340914D0350911D
:1033A0004E030E944462882309F07AC06091FE02B5
:1033B0007091FF02809100039091010320914F03CF
:1033C0003091500340915103509152030E94446246
:1033D000882309F065C060913E0270913F028091A0
:1033E00040029091410220E030E040E752E40E9428
:1033F0004B627B018C018BE493E06FE473E043E567
:1034000053E027E533E0E2E2CE2EE3E0DE2E0E9439
:103410008B3A80914B0390914C03A0914D03B09156
:103420004E038093FA029093FB02A093FC02B093A8
:10343000FD0280914F0390915003A0915103B091F0
:1034400052038093FE029093FF02A0930003B09377
:1034500001038091530390915403A0915503B091BF
:1034600056038093020390930303A0930403B09345
:1034700005038091570390915803A0915903B0918F
:103480005A038093060390930703A0930803B09315
:1034900009031F910F91FF90EF90DF90CF90089557
:1034A00060912A0270912B02882777FD8095982FD2
:1034B0000E94E66220913E0230913F02409140021C
:1034C000509141020E94246520E030E040E752E440
:1034D0000E944B6220E030E048EC52E488CFCF936A
:1034E000DF9389EF9AE00E94EC5FE7E6F3E06491F6
:1034F000EF0107C089EF9AE00E946A0F2196FE0152
:1035000064916623B9F740912F0350913003609185
:103510003103709132034F5F5F4F6F4F7F4F89EFE1
:103520009AE00E94C55E89EF9AE06AE00E946A0F05
:1035300046DDDF91CF9108952F923F924F925F9297
:103540006F927F928F929F92AF92BF92CF92DF92B3
:10355000EF92FF920F931F93DF93CF9300D000D091
:1035600000D0CDB7DEB78C018330910508F051C192
:103570003C01660C771C660C771C930126503D4F6E
:103580003A83298380E090E0A0E0B0E0F9018083F5
:103590009183A283B3838AEF92E06EEF72E042E000
:1035A00053E026E033E00E94A435F301ED51FB4FD8
:1035B000659175918591949105501B4FF801E490A8
:1035C0009301255B3C4F3E832D8320E030E040ECAF
:1035D0005FE30E9424655B016C01FF24E7FCF0942B
:1035E0000F2D1F2DC801B7010E94E6621B012C019F
:1035F000C601B501A20191010E942465AD81BE8181
:103600006D937D938D939C931397F301E65EFD4F2D
:10361000FC83EB83608171818281938160933E02A0
:1036200070933F02809340029093410220E030E08B
:1036300040E752E40E944B627B018C018BE493E0F3
:103640006FE473E043E553E027E533E0A2E2CA2EDE
:10365000A3E0DA2E0E948B3A0E94494780E090E076
:10366000A0E0B0E0E981FA8180839183A283B383F3
:103670008AEF92E06EEF72E042E053E026E033E042
:103680000E94A435F301E151FB4F85909590A590E0
:10369000B490C501B4019058A20191010E94246523
:1036A000AD81BE816D937D938D939C9313976091B3
:1036B0003E0270913F02809140029091410220E0D1
:1036C00030E040E752E40E944B627B018C018BE4C6
:1036D00093E06FE473E043E553E027E533E00E94B5
:1036E0008B3A0E944947C501B401A50194010E948B
:1036F0006B61A20191010E942465ED81FE816083CE
:10370000718382839383AB81BC816D917D918D9117
:103710009C9120E030E040E05FE30E9424656093EC
:103720003E0270933F02809340029093410220E05A
:1037300030E040E752E40E944B627B018C018BE455
:1037400093E06FE473E043E553E027E533E00E9444
:103750008B3A0E944947F301E154FB4F6591759103
:1037600085919491F301E65FFC4FA080B180C28007
:10377000D380A60195010E946B617B018C01CB0176
:10378000D801E981FA8180839183A283B383F30115
:10379000E553FB4F6591759185919491F6E18F2EDC
:1037A000F3E09F2E860C971CA60195010E946B6189
:1037B000D4016D937D938D939C931397F301E952FC
:1037C000FB4F6591759185919491EEE2F2E06E0E5A
:1037D0007F1EA60195010E946B61D3016D937D93BD
:1037E0008D939C931397C701D801ED81FE8180834F
:1037F0009183A283B38380E090E0A0E0B0E0809367
:103800003E0290933F02A0934002B09341020E9477
:10381000904626960FB6F894DEBF0FBECDBFCF916F
:10382000DF911F910F91FF90EF90DF90CF90BF90AD
:10383000AF909F908F907F906F905F904F903F9050
:103840002F900895409166035091670320E630E081
:10385000B901469F9001479F300D569F300D1124AE
:10386000682F772767FD7095C90188599C4F0E9482
:10387000BE0C9C01909365038093640380E0232B2E
:1038800009F081E00895EF92FF920F931F93CF9379
:10389000DF93EC017A018B01FC01649107C089EF91
:1038A0009AE00E946A0F2196FE0164916623B9F79F
:1038B00089EF9AE0B801A7012AE000E00E943A5E91
:1038C000DF91CF911F910F91FF90EF900895EF92AC
:1038D000FF920F931F93CF93DF93EC017A018B013B
:1038E000FC01649107C089EF9AE00E946A0F21965B
:1038F000FE0164916623B9F789EF9AE0B801A70148
:1039000022E00E94D65EDF91CF911F910F91FF9030
:10391000EF900895EF92FF920F931F93CF93DF9351
:10392000EC017A018B01FC01649107C089EF9AE0F8
:103930000E946A0F2196FE0164916623B9F789EF10
:103940009AE0B801A70122E00E94D65EDF91CF91F4
:103950001F910F91FF90EF900895809164039091D3
:103960006503019660E070E04AE050E00C945D0B66
:103970008091640390916503019660E070E00C947F
:10398000000A0F931F93CF93DF938C018091220342
:1039900080932E0384E556DF882309F441C0E8DFD5
:1039A0000E94B86260932E03662309F439C0E2ECEA
:1039B000F2E06491EF0107C089EF9AE00E946A0F7C
:1039C0002196FE0164916623B9F70936110559F075
:1039D0000D36110569F00836110579F489EF9AE082
:1039E00061E271E009C089EF9AE068E371E004C028
:1039F00089EF9AE06FE471E0DADAE091F90AF09188
:103A0000FA0A0190F081E02D89EF9AE060912E038F
:103A1000099589EF9AE06AE00E946A0F81E001C08F
:103A200080E0DF91CF911F910F910895AF92BF92E7
:103A3000CF92DF92EF92FF920F931F93CF93DF937A
:103A40001AEFE12E12E0F12ECBE4D3E000E010E01B
:103A5000F801EE55FD4F8081F5DE882331F188DFD6
:103A60005B016C01F801EC50FD4F8081882311F05F
:103A700061E002C060915B0370E0882777FD80956C
:103A8000982F0E94E662F7012081318142815381A3
:103A90000E9424659B01AC01C601B5010E946B61C7
:103AA000688379838A839B8309C0F7018081918130
:103AB000A281B38188839983AA83BB830F5F1F4F41
:103AC00084E090E0E80EF91E24960430110509F018
:103AD000BFCF86E4B7DE8823D9F04ADF7B018C01B3
:103AE00060935C0370935D0380935E0390935F0328
:103AF00020E030E040E050E00E945264181644F4A8
:103B0000E0923E02F0923F02009340021093410285
:103B1000DF91CF911F910F91FF90EF90DF90CF90A9
:103B2000BF90AF90089582DF89E48CDE882351F046
:103B30001FDF60933F037093400380934103909392
:103B400042030CC080E090E0A0E0B0E080933F032F
:103B500090934003A0934103B09342038AE472DE42
:103B6000882351F005DF60934303709344038093EF
:103B7000450390934603089580E090E0A0E0B0E014
:103B80008093430390934403A0934503B09346036B
:103B900008952F923F924F925F926F927F928F92F1
:103BA0009F92AF92BF92CF92DF92EF92FF920F93CC
:103BB0001F93DF93CF93CDB7DEB76E970FB6F89410
:103BC000DEBF0FBECDBF87E43DDE882309F498C376
:103BD000CFDE0E94B3626430710509F43CC06530E9
:103BE000710554F46230710531F16330710554F59B
:103BF0007723CCF40C943E2C6A35710509F42FC35D
:103C00006B35710534F46C31710511F00C943E2C58
:103C100078C06B35710509F426C36C35710511F058
:103C20000C943E2C25C380912D03882321F4FEDEC5
:103C30008FDB0C94712C80912D03882319F473DF92
:103C400081E006C080912D03882329F46CDF80E099
:103C5000B8DA0C94712C80E5F5DD882321F4AA24D0
:103C6000BB24650105C084DE0E94B8625B016C0163
:103C700083E5E8DD882359F07BDE20E030E04AE789
:103C800054E40E9424650E94B8625B016C010E94AA
:103C900049470FB6F894E090F00AF090F10A0091CD
:103CA000F20A1091F30A0FBEEA0CFB1C0C1D1D1D3D
:103CB0000FB6F8948091F00A9091F10AA091F20A5F
:103CC000B091F30A0FBE8093370390933803A0930B
:103CD0003903B0933A0303C00E94F1520ADA0FB6D7
:103CE000F8948091F00A9091F10AA091F20AB091B3
:103CF000F30A0FBE8E159F05A007B10768F30C9459
:103D00003E2C80913E0290913F02A0914002B091E2
:103D100041028093600390936103A0936203B09388
:103D2000630380912A0290912B029093F902809371
:103D3000F80284E690E090932B0280932A020FB65B
:103D4000F8948091F00A9091F10AA091F20AB09152
:103D5000F30A0FBE8093370390933803A09339037F
:103D6000B0933A0381E00E9497468091FA029091C5
:103D7000FB02A091FC02B091FD0280934B03909353
:103D80004C03A0934D03B0934E038091FE0290919B
:103D9000FF02A0910003B091010380934F03909321
:103DA0005003A0935103B09352038091020390916A
:103DB0000303A0910403B0910503809353039093F0
:103DC0005403A0935503B09356038091060390913A
:103DD0000703A0910803B0910903809357039093C0
:103DE0005803A0935903B0935A0380E090E0A0E0F9
:103DF000B0E080933E0290933F02A0934002B093C4
:103E0000410288E51FDD882351F489E51BDD882305
:103E100031F48AE517DD882311F481E001C080E0E8
:103E200080934202882351F488E50CDD882309F44D
:103E300065C189E507DD882309F460C180E090E071
:103E4000A0E0B0E08093FA029093FB02A093FC0202
:103E5000B093FD028093FE029093FF02A0930003B3
:103E6000B09301038AEF92E06EEF72E042E053E01C
:103E700026E033E00E94A43580E090E8AEE6B3E4AB
:103E800080934B0390934C03A0934D03B0934E0348
:103E900080E090E0A1E6B3E480934F039093500359
:103EA000A0935103B093520320911A0230911B0248
:103EB00040911C0250911D0220933E0230933F021C
:103EC0004093400250934102E0901E02F0901F0286
:103ED0000091200210912102C801B7010E944462A2
:103EE000882344F4E0923E02F0923F0200934002A5
:103EF0001093410260913E0270913F028091400216
:103F00009091410220E030E040E752E40E944B6291
:103F10007B018C018BE493E06FE473E043E553E0B5
:103F200027E533E0E2E2CE2EE3E0DE2E0E948B3A7C
:103F30000E944947EFEBF4E065917591859194916A
:103F400020910A0330910B0340910C0350910D0313
:103F50000E946B616093FA027093FB028093FC02F3
:103F60009093FD02EBECF4E065917591859194914D
:103F700020910A0330910B0340910C0350910D03E3
:103F80000E946B616093160370931703809318036C
:103F900090931903E7EDF4E0659175918591949103
:103FA00020910A0330910B0340910C0350910D03B3
:103FB0000E946B6160932E0270932F0280933002F7
:103FC00090933102E3ECF4E06591759185919491C1
:103FD00020910E0330910F03409110035091110373
:103FE0000E946B616093FE027093FF028093000356
:103FF00090930103EFECF4E06591759185919491B4
:1040000020910E0330910F03409110035091110342
:104010000E946B6160931A0370931B0380931C03CF
:1040200090931D03EBEDF4E065917591859194916A
:1040300020910E0330910F03409110035091110312
:104040000E946B616093320270933302809334025A
:10405000909335028AEF92E06EEF72E042E053E017
:1040600026E033E00E94A4358091FA029091FB0291
:10407000A091FC02B091FD0280934B0390934C03FE
:10408000A0934D03B0934E038091FE029091FF02E6
:10409000A0910003B091010380934F0390935003CC
:1040A000A0935103B093520360913E0270913F027E
:1040B000809140029091410220E030E040E752E4DC
:1040C0000E944B627B018C018BE493E06FE473E010
:1040D00043E553E027E533E00E948B3A80E090E02F
:1040E000A0E0B0E080933E0290933F02A093400294
:1040F000B09341020E9449470E949046809142023B
:10410000882321F488E59EDB882319F080E090E085
:1041100013DA80914202882321F489E593DB882316
:1041200019F081E090E008DA80914202882321F4BE
:104130008AE588DB882319F082E090E0FDD988E5E4
:1041400081DB8823C9F009DC6115710581059105C2
:1041500099F00EDC20910A0330910B0340910C037F
:1041600050910D030E946B616093FA027093FB0201
:104170008093FC029093FD0289E564DB8823C9F0FB
:10418000ECDB611571058105910599F0F1DB20915A
:104190000E0330910F0340911003509111030E94C0
:1041A0006B616093FE027093FF0280930003909313
:1041B00001038AE547DB8823C9F0CFDB6115710570
:1041C0008105910599F0D4DB2091120330911303FE
:1041D00040911403509115030E946B616093020398
:1041E0007093030380930403909305038AEF92E096
:1041F0006EEF72E042E053E026E033E00E94A43527
:104200008091600390916103A0916203B091630378
:1042100080933E0290933F02A0934002B0934102EC
:104220008091F8029091F90290932B0280932A02D8
:104230000FB6F8948091F00A9091F10AA091F20AD9
:10424000B091F30A0FBE8093370390933803A09385
:104250003903B0933A030E9490460C943E2C10927E
:104260005B030C943E2C81E080935B030C943E2C0A
:1042700085E4E8DA882311F40E9449475AEFE52ED5
:1042800052E0F52E4AE0C42E43E0D42E00E010E0C8
:10429000F801EE55FD4F8081D5DA882321F10330F6
:1042A00059F466DBF701608371838283938386E030
:1042B00093E00E94873517C05BDBF60120813181D6
:1042C000428153810E946B61F70160837183828315
:1042D00093838AEF92E06EEF72E042E053E026E0D3
:1042E00033E00E94A4350F5F1F4F84E090E0E80E9A
:1042F000F91EC80ED91E0430110551F60C943E2C3F
:104300008DE4A0DA882311F40C94A22B31DB0E94F7
:10431000B3626837710509F47AC7693771050CF023
:1043200068C06C35710509F4F4C56D35710564F527
:104330006A32710509F487C16B32710574F4623118
:10434000710509F487C56F31710509F4D3C0613176
:10435000710511F00C943E2CC7C06335710509F44A
:1043600075C56435710534F46235710511F00C942E
:104370003E2C69C56435710509F46CC56535710558
:1043800011F00C943E2CAFC56D36710509F495C241
:104390006E367105BCF46936710509F4BFC16A3621
:1043A000710534F46836710511F00C943E2C8AC105
:1043B0006A36710509F413C56B36710511F00C945A
:1043C0003E2C3CC56337710509F428C66437710576
:1043D00034F46237710511F00C943E2C3FC66537FA
:1043E000710509F42BC66737710511F00C943E2C4A
:1043F00014C76D3D710511F40C94722A6E3D710560
:1044000094F56B3C710509F4A4C76C3C7105BCF4D0
:104410006C38710509F473C16D38710534F469376E
:10442000710511F00C943E2CF4C66E3B710509F435
:1044300017C4693C710511F00C943E2C50C76D3CBB
:10444000710509F4C4C76D3C71050CF4A0C76E3C3E
:10445000710511F40C94452A6C3D710511F00C9412
:104460003E2C0C94632A91E0643F790711F40C947C
:10447000812BE1E0653F7E07F4F4F1E06E327F07C7
:1044800011F40C943A2B21E06F3272073CF46D5218
:10449000714011F00C943E2C0C94812A91E06F3203
:1044A000790711F40C943E2B6059714011F00C9473
:1044B0003E2C0C947E2BF1E0663F7F0711F40C94A8
:1044C000872B21E0663F720714F40C94842B81E063
:1044D000673F780711F40C948A2B675E734011F0E4
:1044E0000C943E2C0C948D2B779876984798439893
:1044F0000C943E2C0FB6F8946091F00A7091F10A7A
:104500008091F20A9091F30A0FBE60932903709391
:104510002A0380932B0390932C0320912503309141
:1045200026034091270350912803621B730B840BD1
:10453000950B28EE33E040E050E00E942866F22E12
:10454000E32ED42EC52EEDB7FEB738970FB6F894EC
:10455000FEBF0FBEEDBF0DB71EB70F5F1F4FCE01E1
:1045600001969283818380EB94E0F80193838283A8
:10457000622F732F842F952F2CE330E040E050E022
:104580000E942866F801358324836F2D7E2D8D2DA2
:104590009C2D2CE330E040E050E00E942866F801BA
:1045A000778366830E94D70CE2ECF2E064918F017E
:1045B0008DB79EB708960FB6F8949EBF0FBE8DBFFD
:1045C00008C089EF9AE00E946A0F0F5F1F4FF80141
:1045D00064916623B1F789EF9AE0BE016F5F7F4F68
:1045E0000E94D71789EF9AE06AE00E946A0F8091D3
:1045F0006805882311F40C943E2C10926805809174
:104600002203082F10E0000F111F0656154FF80166
:1046100060817181882777FD8095982F0E94E662DE
:1046200020914702309148024091490250914A023C
:104630000E945264181614F00C943E2CF80111825A
:1046400010820C943E2C83E5FDD8882311F40C9441
:104650003E2C8ED90E94B3627B018C016B0180E5F8
:10466000F1D8882361F0F7FC0AC0FFEFEF16F104E0
:1046700009F02CF47DD90E94B3627B0103C0EE24C3
:10468000EA94FE2CE6EAF2E0808191818E159F0586
:1046900011F40C943E2C329623E0E631F207A1F798
:1046A000F7FE02C00C943E2C8E2D0E949359EE2DE5
:1046B000F0E00C2C0E94A4598E2DB6010E944E5B96
:1046C0000C943E2C88E690E05CD9882311F00C9481
:1046D0003E2C83E5B7D8882371F04AD920912E0368
:1046E000022F10E0000F111F0656154F0E94B362F3
:1046F000F801718360830E94264F0C943E2C83E561
:10470000A1D8882311F40C943E2C32D90E94B362B4
:1047100070939D0A60939C0A0C943E2C89E690E06D
:1047200030D9882311F00C943E2CEAEAF4E064912D
:104730008F0108C089EF9AE00E946A0F0F5F1F4F38
:10474000F80164916623B1F7E0912E03F0E0EE0FDB
:10475000FF1FEE0FFF1FE056F54F40815181628130
:10476000738189EF9AE021E00E94D65EE7EAF4E0E7
:1047700064918F0108C089EF9AE00E946A0F0F5F71
:104780001F4FF80164916623B1F7E0912E03F0E02A
:10479000EE0FFF1FE656F54F60817181882777FD88
:1047A0008095982F0E94E662AB01BC0189EF9AE0E8
:1047B00021E00E94D65EE3EAF4E064918F0108C034
:1047C00089EF9AE00E946A0F0F5F1F4FF801649112
:1047D0006623B1F74091A60A5091A70A6091A80AF2
:1047E0007091A90A89EF9AE021E00E94D65EE0EA82
:1047F000F4E064918F0108C089EF9AE00E946A0F8B
:104800000F5F1F4FF80164916623B1F760919C0A16
:1048100070919D0A882777FD8095982F0E94E66207
:10482000AB01BC0189EF9AE021E00E94D65EECE981
:10483000F4E064918F0108C089EF9AE00E946A0F4A
:104840000F5F1F4FF80164916623B1F780912E032B
:1048500090E00E946B4EAC01662757FD6095762F65
:1048600089EF9AE00E94C55EE7E9F4E064918F0168
:1048700008C089EF9AE00E946A0F0F5F1F4FF8018E
:1048800064916623B1F78FEF9FEF0E946B4EAC01EE
:10489000662757FD6095762F89EF9AE00E94C55EE6
:1048A00089EF9AE066E671E00E94D71789EF9AE0F7
:1048B0006AE00E946A0F0C94712C8DE690E061D83A
:1048C000882309F0DBC71092680583E50E94221C4B
:1048D000882371F04DD820912E03022F10E0000F95
:1048E000111F0656154F0E94B362F8017183608351
:1048F00083E50E94221C882349F03AD8609347023E
:10490000709348028093490290934A0282E40E9485
:10491000221C882349F02CD86093430270934402F0
:10492000809345029093460286E40E94221C8823CD
:1049300061F01ED860934B0270934C0280934D023D
:1049400090934E0281E0809368050E94264F0FB637
:10495000F8948090F00A9090F10AA090F20AB0903A
:10496000F30A0FBE20912E03022F10E07724000FD0
:10497000111FF801E656F54F60817181882777FD98
:104980008095982F0E94E662000F111F0056154F68
:10499000F80120813181428153810E9452641816AE
:1049A00014F477247394CC24CA94DC2C7601E4E9C3
:1049B000F4E04490E0E9F4E05490ECE8F4E0649032
:1049C00039C1642D04E914E008C089EF9AE00E941F
:1049D0006A0F0F5F1F4FF80164916623B1F7E091F2
:1049E0002E03F0E0EE0FFF1FEE0FFF1FE056F54F16
:1049F000408151816281738189EF9AE021E00E94B8
:104A0000D65E652D00E914E008C089EF9AE00E94A7
:104A10006A0F0F5F1F4FF80164916623B1F7409151
:104A20002E0350E0662757FD6095762F89EF9AE0B8
:104A30000E94C55E662D0CE814E008C089EF9AE07C
:104A40000E946A0F0F5F1F4FF80164916623B1F750
:104A5000F7FC24C00FB6F8942091F00A3091F10AC7
:104A60004091F20A5091F30A0FBEC701B601685790
:104A70007C4E8F4F9F4F621B730B840B950B28EE60
:104A800033E040E050E00E94286689EF9AE0BA01E6
:104A9000A9012AE000E00E943A5E06C089EF9AE090
:104AA00067E671E00E94D71789EF9AE06AE00E94FA
:104AB0006A0F0FB6F8948090F00A9090F10AA090D7
:104AC000F20AB090F30A0FBE0E94F1520E947918C8
:104AD000FFEFCF16FFEFDF06FFEFEF06FFEFFF065A
:104AE00009F050C0E0912E03772031F1F0E08F0102
:104AF000000F111F000F111F0056154FEE0FFF1F63
:104B0000E656F54F60817181882777FD8095982F53
:104B10000E94E66220E030E040E85FE30E946A61C4
:104B20009B01AC01F80160817181828193810E94B7
:104B3000526487FF58C062C0F0E08F01000F111F60
:104B4000000F111F0056154FEE0FFF1FE656F54FD1
:104B500060817181882777FD8095982F0E94E66299
:104B600020E030E040E85FE30E946B619B01AC0114
:104B7000F80160817181828193810E9444621816DC
:104B800094F53CC0F7FC3AC0E0912E03F0E08F01B1
:104B9000000F111F000F111F0056154FEE0FFF1FC2
:104BA000E656F54F60817181882777FD8095982FB3
:104BB0000E94E6629B01AC01F801608171818281F3
:104BC00093810E946A610E94B36297FF07C090952B
:104BD0008095709561957F4F8F4F9F4F6430710521
:104BE000810591055CF00FB6F894C090F00AD09062
:104BF000F10AE090F20AF090F30A0FBEFFEFCF1631
:104C0000FFEFDF06FFEFEF06FFEFFF0699F0F7FC7F
:104C100038C60FB6F8948091F00A9091F10AA091ED
:104C2000F20AB091F30A0FBE8C199D09885893417E
:104C300008F027C60FB6F8948091F00A9091F10A17
:104C4000A091F20AB091F30A0FBE88199909AA0936
:104C5000BB09895E9340A040B04008F0B2CE34CF8B
:104C600083E50E94221C882341F00E94B81C0E9408
:104C7000B36270939D0A60939C0A0FB6F894E0901B
:104C8000F00AF090F10A0091F20A1091F30A0FBEB7
:104C9000E9E8F4E09490E5E8F4E0A490E1E8F4E0D9
:104CA000B49085C00FB6F8948091F00A9091F10A03
:104CB000A091F20AB091F30A0FBE8E199F09A00BC2
:104CC000B10B895E9340A040B04008F46CC0E09105
:104CD0002203F0E0EE0FFF1FEE0FFF1FE056F54F2F
:104CE000C080D180E280F380692D09E814E008C01B
:104CF00089EF9AE00E946A0F0F5F1F4FF8016491DD
:104D00006623B1F789EF9AE0B701A60122E00E947D
:104D1000D65E6A2D05E814E008C089EF9AE00E948B
:104D20006A0F0F5F1F4FF80164916623B1F740913E
:104D3000220350E0662757FD6095762F89EF9AE0B1
:104D40000E94C55E6B2D01E814E008C089EF9AE06F
:104D50000E946A0F0F5F1F4FF80164916623B1F73D
:104D60004091A60A5091A70A6091A80A7091A90AD9
:104D700089EF9AE021E00E94D65E89EF9AE066E62C
:104D800071E00E94D71789EF9AE06AE00E946A0FEB
:104D90000FB6F894E090F00AF090F10A0091F20A50
:104DA0001091F30A0FBE0E94F1520E94791860918F
:104DB0009C0A70919D0A882777FD8095982F0E9404
:104DC000E6622091A60A3091A70A4091A80A509164
:104DD000A90A0E94526418160CF464CF65C583E5D5
:104DE0000E94221C882319F10E94B81C20E030E0A8
:104DF00040E050E00E94446288231CF460E070E0D0
:104E000011C00E94B81C20E030E04FE753E40E943C
:104E1000526418161CF46FEF70E004C00E94B81CB6
:104E20000E94B362709324036093230327C58FEF1E
:104E300090E0909324038093230320C510922403D1
:104E4000109223031BC51092F70218C581E08093CE
:104E5000F70214C583E50E94221C882399F00E9462
:104E6000B81C20E030E04AE754E40E9424650E9428
:104E7000B86260933A0270933B0280933C02909335
:104E80003D02FCC488E50E94221C882309F020C54D
:104E900089E50E94221C882309F01AC58AE50E9430
:104EA000221C882309F014C585E40E94221C882353
:104EB00009F00EC50E944947439A0E945547DEC437
:104EC000779A89E50E94221C8111769A8AE50E94D0
:104ED000221C8111479A85E40E94221C882309F430
:104EE000CDC4439ACBC483E50E94221C0E94B81C07
:104EF00020E030E04AE754E40E9424650E94B86252
:104F000060933B0370933C0380933D0390933E0377
:104F1000B5C45CE0652E55E0752E4CEF242E44E0C0
:104F2000342E38E4432E35E0532E88249924F4019E
:104F3000EE55FD4F80810E94221C882309F45DC03C
:104F4000F3E08F1609F052C00E94B81C5B016C019F
:104F500020E030E040EA51E40E94446288230CF0F3
:104F60003FC0F3016081718182819381A601950127
:104F70000E944B627B018C0160914005709141055C
:104F80008091420590914305A80197010E942465F4
:104F900060934005709341058093420590934305CB
:104FA000F1016081718182819381A80197010E9442
:104FB0002465F1016083718382839383F2016081B0
:104FC0007181828193810E94E462A80197010E940D
:104FD00024650E94B862F2016083718382839383A7
:104FE000F301A082B182C282D38207C00E94B81CA2
:104FF000F30160837183828393830894811C911CE5
:1050000084E090E0680E791E280E391E480E591E65
:1050100094E08916910409F08ACF30C4EAEBF3E0FA
:1050200064918F0108C089EF9AE00E946A0F0F5FB8
:105030001F4FF80164916623B1F720C48091640387
:105040009091650305966AE270E00E94BE0CFC0137
:10505000009709F413C43197108210C4E7EBF3E012
:1050600064918F0108C089EF9AE00E946A0F0F5F78
:105070001F4FF80164916623B1F74091FA025091F5
:10508000FB026091FC027091FD0289EF9AE022E040
:105090000E94D65EE4EBF3E064918F0108C089EFD3
:1050A0009AE00E946A0F0F5F1F4FF8016491662318
:1050B000B1F74091FE025091FF02609100037091A0
:1050C000010389EF9AE022E00E94D65EE1EBF3E073
:1050D00064918F0108C089EF9AE00E946A0F0F5F08
:1050E0001F4FF80164916623B1F74091020350917C
:1050F0000303609104037091050389EF9AE022E0B5
:105100000E94D65EEEEAF3E064918F0108C089EF59
:105110009AE00E946A0F0F5F1F4FF80164916623A7
:10512000B1F7409106035091070360910803709115
:10513000090389EF9AE022E00E94D65EE3EAF3E0F9
:1051400064918F0108C089EF9AE00E946A0F0F5F97
:105150001F4FF80164916623B1F780E00E94374742
:105160000E94E66220910C0530910D0540910E05DC
:1051700050910F050E944B62AB01BC0189EF9AE090
:1051800022E00E94D65EE0EAF3E064918F0108C05D
:1051900089EF9AE00E946A0F0F5F1F4FF801649138
:1051A0006623B1F781E00E9437470E94E6622091B2
:1051B00010053091110540911205509113050E9480
:1051C0004B62AB01BC0189EF9AE022E00E94D65EFF
:1051D000EDE9F3E064918F0108C089EF9AE00E9445
:1051E0006A0F0F5F1F4FF80164916623B1F782E0E9
:1051F0000E9437470E94E662209114053091150500
:1052000040911605509117050E944B6227C280E01D
:1052100001C081E00E94974631C389EF9AE069E6B8
:1052200071E00E94D71789EF9AE06AE00E946A0F46
:10523000E5E9F3E064918F0108C089EF9AE00E94EC
:105240006A0F0F5F1F4FF80164916623B1F76399EE
:1052500003C062E871E002C067E871E089EF9AE09C
:105260000E94D71789EF9AE06AE00E946A0FEDE882
:10527000F3E064918F0108C089EF9AE00E946A0F01
:105280000F5F1F4FF80164916623B1F7189903C0AF
:1052900062E871E002C067E871E089EF9AE00E947D
:1052A000D71789EF9AE06AE00E946A0FE5E8F3E019
:1052B00064918F0108C089EF9AE00E946A0F0F5F26
:1052C0001F4FF80164916623B1F7649903C062E847
:1052D00071E002C067E871E089EF9AE066C222EAF5
:1052E000C22E22E0D22EEE24FF24F60180810E94FD
:1052F000221C882309F10E94B81C8701045E1A4F02
:105300000E94B862F80160837183828393830E9454
:10531000B81C8701085B1A4FF701E45FFA4F208140
:105320003181428153810E9424650E94B862F80154
:1053300060837183828393830894C11CD11C84E0B1
:1053400090E0E80EF91E96EAC91692E0D90669F6D1
:1053500095C202EA12E09CEFE92E94E0F92EF801E2
:1053600080810E94221C882339F00E94B81CF7011A
:1053700060837183828393830F5F1F4F84E090E08B
:10538000E80EF91E92E0063A190749F777C283E55D
:105390000E94221C882351F00E94B81C60933005A3
:1053A00070933105809332059093330584E50E9414
:1053B000221C882309F462C20E94B81C6093340541
:1053C00070933505809336059093370557C283E572
:1053D0000E94221C882351F00E94B81C60932C0567
:1053E00070932D0580932E0590932F0584E50E94E0
:1053F000221C882351F00E94B81C609344057093CE
:105400004505809346059093470582E40E94221C3F
:10541000882361F00E94B81C0E94B8626093F8046F
:105420007093F9048093FA049093FB0488E50E943A
:10543000221C882351F00E94B81C60933805709399
:10544000390580933A0590933B058AE50E94221C1A
:10545000882351F00E94B81C60933C0570933D0571
:1054600080933E0590933F0585E40E94221C88238B
:1054700009F404C20E94B81C609340057093410572
:105480008093420590934305F9C102EA12E08AE055
:10549000E82E83E0F82EF80180810E94221C8823E8
:1054A00039F00E94B81CF701608371838283938373
:1054B0000F5F1F4F84E090E0E80EF91E92E0053A7E
:1054C000190749F7DBC183E50E94221C882309F4F0
:1054D000D5C10E94B81C0E94B36270932B026093E6
:1054E0002A02CCC183E50E94221C882309F4C6C18C
:1054F0000E94B81C0E94B36270932D0260932C022C
:10550000BDC180E50E94221C882351F00E94B81C76
:105510006093540270935502809356029093570201
:1055200089E40E94221C882381F00E94B81C2DEB84
:1055300037E346E05EE30E9424656093580270936F
:10554000590280935A0290935B0284E40E94221CC9
:10555000882381F00E94B81C2DEB37E346E05EE320
:105560000E944B6260935C0270935D0280935E02C6
:1055700090935F0283E40E94221C882351F00E94D2
:10558000B81C6093600270936102809362029093F2
:1055900063020E94544E89EF9AE061E971E00E9433
:1055A000D71789EF9AE064E971E00E94D71740911C
:1055B000540250915502609156027091570289EF42
:1055C0009AE022E00E94D65E89EF9AE068E971E0F5
:1055D0000E94D717609158027091590280915A0227
:1055E00090915B022DEB37E346E05EE30E944B6255
:1055F000AB01BC0189EF9AE022E00E94D65E89EF00
:105600009AE06CE971E00E94D71760915C0270919A
:105610005D0280915E0290915F022DEB37E346E0E0
:105620005EE30E942465AB01BC0189EF9AE022E0B1
:105630000E94D65E89EF9AE060EA71E00E94D71777
:1056400060916002709161028091620290916302A8
:105650002DEB37E346E05EE30E942465AB01BC011D
:1056600089EF9AE022E00E94D65E89EF9AE066E632
:1056700071E09BC081E00E94843500C185E40E94F6
:10568000221C882319F4CC24DD2412C00E94B81CEB
:105690000E94B3626B0177FF0BC00F2EF0E0EF2E7C
:1056A000F0E0FF2EFCE80F2FF2E41F2FF02D0AC0D0
:1056B0000F2EF0E0EF2EF0E0FF2EF6E10F2FF3E4D7
:1056C0001F2FF02D83E50E94221C882321F00E94C9
:1056D000B81C7B018C0183E40E94221C882319F4EE
:1056E00025E030E005C00E94B81C0E94B3629B0117
:1056F000C801B701A6010E94D454C0C00E94494706
:10570000BDC00E94820FBAC00E940716B7C00E9497
:10571000CB11B4C00E942913B1C010922D03809107
:10572000330390913403A0913503B09136038093F5
:105730002F0390933003A0933103B09332030E9460
:105740006F1A9CC084E50E94221C882309F451C072
:105750000E94B81C0E94B86260932E03E2ECF2E053
:10576000662331F164918F0108C089EF9AE00E94AD
:105770006A0F0F5F1F4FF80164916623B1F789EF3D
:105780009AE064EA71E00E94D717E091F90AF0917B
:10579000FA0A0190F081E02D89EF9AE060912E03E2
:1057A000099589EF9AE066EA71E00E94D71761C017
:1057B0001092220364918F0108C089EF9AE00E9441
:1057C0006A0F0F5F1F4FF80164916623B1F789EFED
:1057D0009AE067EB71E00E94D7174091220350E0F6
:1057E000662757FD6095762F89EF9AE00E94C55E87
:1057F00040C0E2ECF2E064918F0108C089EF9AE0CA
:105800000E946A0F0F5F1F4FF80164916623B1F782
:10581000E2E7F3E064918F0108C089EF9AE00E940B
:105820006A0F0F5F1F4FF80164916623B1F7209153
:1058300066033091670380E690E0289FB001299FBE
:10584000700D389F700D112468597C4F89EF9AE0D4
:105850000E94D717E0E7F3E064918F0108C089EF59
:105860009AE00E946A0F0F5F1F4FF8016491662350
:10587000B1F789EF9AE06AE00E946A0F0E94DF1791
:1058800030C00FB6F8948091F00A9091F10AA0917F
:10589000F20AB091F30A0FBE80932503909326037A
:1058A000A0932703B09328030FB6F8948091F00AD1
:1058B0009091F10AA091F20AB091F30A0FBE809381
:1058C000370390933803A0933903B0933A03D6CFAC
:1058D0000E94494788E50E94221C882309F0F0CAEB
:1058E000F0CA6E960FB6F894DEBF0FBECDBFCF9153
:1058F000DF911F910F91FF90EF90DF90CF90BF90BD
:10590000AF909F908F907F906F905F904F903F905F
:105910002F900895BF92CF92DF92EF92FF920F9354
:105920001F93CF93DF93F0E6EF2EF12CEEEFF4E030
:10593000C490E4E7F5E0D490BB24B394E1C12D30EA
:1059400071F02A3321F48091E904882341F0809199
:10595000EA049091EB048F3591050CF4ADC1E09110
:10596000EA04F091EB04309719F41092E904FAC1BB
:10597000A091EC04B091ED04AE9D8001AF9D100D9F
:10598000BE9D100D1124E00FF11FE859FC4F10824D
:105990008091E904882309F08AC11092E904A25198
:1059A000BB4F1C92E801C859DC4FCE016EE470E099
:1059B0000E94BE0C9C01009709F4D9C09093650326
:1059C000809364032F5F3F4F2C1B3D0B200F311F33
:1059D000C90188599C4F60E070E04AE050E00E94A5
:1059E0005D0B6093F2047093F3048093F40490933E
:1059F000F50420912F0330913003409131035091F1
:105A000032032F5F3F4F4F4F5F4F6217730784077B
:105A1000950709F48DC18091EC049091ED049C01EF
:105A20002E9DC0012F9D900D3E9D900D11248859F3
:105A30009C4F6DE176E00E94A40C892B09F078C19F
:105A4000E8ECF2E06491EF0107C089EF9AE00E9470
:105A50006A0F2196FE0164916623B9F7EAEEF5E03C
:105A60006491EF0107C089EF9AE00E946A0F2196C6
:105A7000FE0164916623B9F755C01E274F5FFC01F4
:105A8000E40FF11DE859FC4FE081EA32B1F73093A1
:105A9000650320936403C901019660E070E00E94F1
:105AA000000A0E94B362212F30E02617370709F45D
:105AB0004DC0E8ECF2E06491EF0107C089EF9AE095
:105AC0000E946A0F2196FE0164916623B9F7EBEC00
:105AD000F5E06491EF0107C089EF9AE00E946A0F38
